:020000040800F2
:10000000E0050020010100089B3000082B280008B3
:1000100099300008630900086139000800000000F9
:10002000000000000000000000000000473300084E
:10003000110B000800000000BD3000084933000823
:100040001B0100081B0100081B0100081B01000820
:100050001B0100081B0100081B0100081B01000810
:100060001B0100081B0100081B010008A50A00086D
:100070001B0100081B0100081B0100081B010008F0
:100080001B0100081B0100081B0100081B010008E0
:100090001B0100081B0100081B0100081B010008D0
:1000A0001B0100081B0100081B0100081B010008C0
:1000B0001B0100081B0100081B0100081B010008B0
:1000C0001B0100081B0100081B0100081B010008A0
:1000D0001B010008553900081B0100081B0100081E
:1000E0001B0100081B0100081B010008DFF80CD0F1
:1000F00000F032FB004800472D3B0008E0050020DF
:100100000648804706480047FEE7FEE7FEE7FEE7B1
:10011000FEE7FEE7FEE7FEE7FEE7FEE7D133000875
:10012000ED000008202A04DB203A21FA02F0002129
:10013000704721FA02F3D040C2F1200291400843F7
:100140001946704740EA01039B0703D009E008C93C
:10015000121F08C0042AFAD203E011F8013B00F88C
:10016000013B521EF9D2704780EA010210B502F03D
:100170000043400022D04A001FD0010E01EB126163
:10018000C0F35600C2F3560240F4000042F40002ED
:10019000A0FB022000047F39140400D0401C50EA68
:1001A000124001D44000491EC2B20C0604EBD0102C
:1001B000401C4008802A02D003E0002010BD20F03F
:1001C0000100002900DA0020184310BD2DE9FE4F80
:1001D000804681EA0300C00F0C46009021F00041E8
:1001E00023F00045B8EB0200A94105D24046214664
:1001F00090461C460B46024623F00040104347D071
:10020000270DC7F30A00C3F30A510290401A019068
:1002100040286BDAC3F3130040F4801B0098924629
:1002200020B10023D2EB030A63EB0B0B0198594674
:10023000C0F14002504600F0D9F906460D4650463E
:100240005946019A00F0E1F910EB080061410024E1
:1002500087EA115284EAE7731A4340D0009A62B3E6
:10026000019A012A4FEA075215DC001B61EB0201DB
:100270004FF0004202EA0752CDE90042001C41F56E
:10028000801132462B4600F018FA03B0BDE8F08F1B
:1002900040462146F9E7001B61EB0201001C41F5D5
:1002A000801300185B412018A2F5001747EB0301EB
:1002B00040EAD570B6196D4111E06D084FEA360677
:1002C00045EAC0754FEA0752001B61EB0201001CB2
:1002D00041F5801149084FEA30000019514132467A
:1002E0002B4603B0BDE8F04F00F0D8B900980122CA
:1002F00040000023D0EB020263EBE073009821463C
:100300004FEAE074B8EB000061EB0401E9E783F029
:1003100000435BE781F0004158E72DE9FE4F81EA99
:10032000030404F0004421F0004100944FF0000B5E
:1003300023F0004350EA01045ED052EA03045BD08C
:10034000C3F30A54C1F30A552C44A4F2F3340194C4
:10035000A0FB0254C1F3130141F48011C3F3130352
:1003600043F4801301FB024400FB034E840A970A06
:1003700044EA815447EA8357A4FB076802958D0A33
:1003800005FB07854FEA932C04FB0C542705029DBF
:100390004FEA065847EA1637B5EB08056EEB070C2F
:1003A000870E920E47EA811742EA8312A7FB0201E9
:1003B000B6EB0B0164EB00042B0D43EA0C335E1823
:1003C00044EB1C50DA465146E7FB0201C5F3130427
:1003D0004FEA0B3343EA14534FEA0432019C43EAD9
:1003E0000603A4F10C040294009CCDE900B400F0D3
:1003F00064F903B0BDE8F08F00200146F9E72DE96C
:10040000F04D81EA030404F0004B21F0004514464E
:100410004FF0000A23F0004150EA050220D054EAD0
:1004200001021DD0C5F30A570246C5F31303C1F3F9
:100430001300C1F30A5640F4801543F48013A7EB70
:100440000608101BD64608F2FD3873EB050002D3F0
:1004500008F1010801E092185B41B8F1000F03DADE
:1004600000200146BDE8F08D00204FF480110646C3
:1004700084460EE0171B73EB050705D3121B63EBD5
:10048000050306434CEA010C49084FEA3000921874
:100490005B4150EA0107EDD152EA030012D082EA33
:1004A000040083EA0501084305D0101BAB4106D2C6
:1004B0000122002306E000224FF0004302E06FF02B
:1004C000010253101AEB06004CEB085110EB0A0026
:1004D00041EB0B01BDE8F04D00F0E0B870B521F044
:1004E000004303430CD0C1F30A550024D5EB0405A7
:1004F00064EB0403D617AD1AB34102DB00200146BA
:1005000070BD201841EB025170BD0EB540F2334171
:1005100002910021CDE900110A460B4600F0CDF80A
:1005200003B000BD70B5C1F30A5201F000450024CC
:10053000C1F3130140F2FF3341F480119A4201DA12
:10054000002070BD40F233439A42A2F2334203DCF2
:100550005242FFF7E7FD00E090402C43F1D04042CB
:1005600070BD00F0004230F000400AD0C10D01F52E
:100570006071C0F3160042EA0151C20840071143FE
:10058000704700200146704701F0004330B421F06D
:10059000004150EA010206D00A0DA2F56072C1F3D3
:1005A0001301002A02DC30BC00207047440F44EAEB
:1005B000C104C100E01830BC00EBC25000F037B8F5
:1005C00030B50B46014600202022012409E021FA23
:1005D00002F59D4205D303FA02F5491B04FA02F520
:1005E0002844151EA2F10102F1DC30BD202A04DBF3
:1005F000203A00FA02F1002070479140C2F1200336
:1006000020FA03F3194390407047202A06DBCB17EA
:10061000203A41FA02F043EAE07306E041FA02F3BD
:10062000D040C2F12002914008431946704700298A
:10063000A8BF7047401C490008BF20F00100704768
:1006400010B4B0FA80FC00FA0CF050EA010404BFC8
:1006500010BC704749B1CCF1200421FA04F411FA1E
:100660000CF118BF012121430843A3EB0C01CB1D62
:100670004FEA00614FEA102042BF002010BC7047D3
:1006800000EBC35010440029A4BF10BC7047401CAD
:10069000490008BF20F0010010BC704710B5141EBF
:1006A00073F1000408DA401C41F1000192185B412B
:1006B0001A4301D120F0010010BD2DE9F04D924602
:1006C0009B4611B1B1FA81F202E0B0FA80F2203219
:1006D0009046FFF78BFF04460F4640EA0A0041EAC6
:1006E0000B0153465A46084313D0114653EA010002
:1006F00019D0C8F140025046FFF714FD05460E46DA
:10070000504659464246FFF771FF084305D0012085
:1007100004E020463946BDE8F08D0020054346EA56
:10072000E0762C4337430A986305E40AA0EB0800FF
:100730000022FD0A44EA47540A3002D5002001464F
:10074000E9E7010510196941DDE90845001969412A
:10075000BDE8F04DA2E70000064C074D06E0E0685A
:1007600040F0010394E8070098471034AC42F6D3F8
:10077000FFF7C0FCD0440008F044000870B5044600
:1007800000688168C943C9071CD1816821F0010153
:10079000816000F04BFE05460FE000BF00F046FE12
:1007A000401B022809D9A06A40F01000A062E06A4C
:1007B00040F00100E062012070BD20688068C04305
:1007C000C007EBD0002070BD10B50146406A826AB8
:1007D00012F0500F05D0006A026BBDE810400846C9
:1007E0001047816A41F40071816201688968C1F330
:1007F000424107290CD1C16851B9816A21F4807145
:100800008162816AC90403D4816A41F00101816275
:1008100000F034FA10BD10B5406A816A41F0400121
:100820008162C16A41F00401C16200F029FA10BD81
:1008300010B5406A00F023FA10BD0000F8B500269C
:100840000446009600688168C943C90728D08168BA
:1008500041F001018160134813490068B0FBF1F0D9
:1008600000E0401E00900028FBD100F0DFFD0546AF
:1008700011E000BF00F0DAFD401B02280BD9A06A8E
:1008800040F01000A062E06A40F00100E06284F8ED
:1008900024600120F8BD20688068C043C007E9D10A
:1008A0000020F8BD0800002040420F002DE9F04173
:1008B00007461C4615460E462A2002F02FF9380A34
:1008C00002F01EF9F8B202F01BF9280A02F018F93A
:1008D000E8B202F015F92B2002F020F9300A02F0FC
:1008E0000FF9F0B202F00CF9200A02F009F9E0B2B7
:1008F00002F006F9BDE8F0412C2002F00FB970B506
:1009000014460D00064614D08CB1304601F0EFFDC0
:100910001228FAD0304601F0EAFD3228F5D06423DF
:1009200022462946304601F019FF032800D0002056
:1009300070BD012070BD13B50446204601F0D7FDFF
:100940001228FAD0204601F0D2FD3228F5D06423D7
:10095000012201A9204601F001FF032800D0002058
:100960001CBDFEE700B587B0B0B160210091002149
:100970000691029104910391059101900C22694620
:100980000A4801F0EDFC00B1FEE70C21074801F038
:100990006BFD002807D0FEE70C21044801F07CFD28
:1009A000002800D0FEE707B000BD0000DC000020FA
:1009B0002DE9F05F0024064627464FF4784B4FF4AC
:1009C000AF7A4FF4FA754FF0FA0840F2E739304643
:1009D00002F076FBB4FBF5F005FB104038B14FF4A4
:1009E0004870B4FBF0F100FB114020B114E0304638
:1009F00001F044FF10E02249A1F800B037B121A274
:100A00003221002002F04FF8002705E021A2322118
:100A1000002002F048F80127B6F908009638504542
:100A200009D8B6F906003230652804D2B6F90400B8
:100A30003230652814D3B4FBF5F005FB1041B1FB4F
:100A4000F8F000EB8000400002F084F8B4FBF9F10C
:100A500009FB1140401CFFF785FF641CA4B2B6E7F8
:100A6000002002F077F80020FFF77CFF044909A27C
:100A7000A1F800B0BDE8F05F3221002002F013B809
:100A80001000002041646A75737420537469636BAD
:100A90002121000020202020202020202020202094
:100AA00020200000014800F047BA0000A801002003
:100AB00010B5046863604368102B036803D0996025
:100AC0000068C26010BD9A600068C16010BD00007F
:100AD00030B585B07E218DF8001055218DF80110BC
:100AE0000E2401466D468DF802402246E81CFFF7B1
:100AF00029FB2146E81C02F0FFFF8DF811001222AD
:100B000069460248FFF7FBFE05B030BD58010020E2
:100B10007047FEE7F8B50025009590F82420AE4612
:100B2000012A1ED0012280F824204A681F244FF495
:100B30007873072A17D20668776B93FAA3FCBCFA7E
:100B40008CFC521E02FB0CFC04FA0CF4A74393FA33
:100B5000A3F3B3FA83F30C685A43944027437763B3
:100B60002DE00220F8BD06680D2A14D2376B93FAE7
:100B7000A3FCBCFA8CFCD21F02FB0CFC04FA0CF4A4
:100B8000A74393FAA3F3B3FA83F30C685A43944050
:100B90002743376313E0F76A93FAA3FCBCFA8CFC93
:100BA0000D3A02FB0CFC04FA0CF4A74393FAA3F3EE
:100BB000B3FA83F30C685A4394402743F7620A68F8
:100BC0003823072406680A2A14D3F76893FAA3FC8B
:100BD000BCFA8CFC0A3A02FB0CFC04FA0CF4A743A6
:100BE00093FAA3F3B3FA83F38C685A4394402743F0
:100BF000F76012E0376993FAA3FCBCFA8CFC02FBA5
:100C00000CFC04FA0CF4A74393FAA3F3B3FA83F3AE
:100C10008C685A439440274337610A68102A01D0F0
:100C2000112A20D1124B02689A4217D193681B02F5
:100C300019D4936843F4000393600968102912D112
:100C40000C490D4A0968B1FBF2F101EB8101490041
:100C500000E0491E00910029FBD104E0816A41F0C7
:100C600020018162012580F824E02846F8BD0000BB
:100C7000002401400800002040420F0070477047E8
:100C8000704700002DE9F04104004FF0000514D03A
:100C9000A06A002628B9E66284F82460204600F0A5
:100CA0008BF82046FFF76AFDA16A01F010010143AD
:100CB00004D0A06A40F01000A06277E0A16A21F49D
:100CC000885141F00201A1626268E16902270A438A
:100CD000E16897FAA7F70B46B7FA87F7B9400A43D6
:100CE000A1684FF48077B94208D0012906D00021CD
:100CF000D4F814C0BCF1010F02D00AE03946F7E77E
:100D0000F3B1A36A43F02003A362E36A43F0010353
:100D1000E3622368D3F804C02CF4694C4CEA010C5C
:100D2000C3F804C021688B68DFF884C003EA0C03B1
:100D300013438B60A168B94210D001290ED016E090
:100D40004FF4604CA3699CFAACFCBCFA8CFC5B1EB3
:100D500003FA0CF30B4343F40061DAE74FF470013C
:100D6000256991FAA1F1B1FA81F16D1E8D402168DA
:100D7000CB6A23F470032B43CB62216889680D4B47
:100D80001940914208D1E662A16A21F0020141F0C6
:100D90000101A162BDE8F081A06A20F0020040F0EC
:100DA0001000A062E06A40F00100E0620120F1E77B
:100DB000FDF7E1FFFE0E1FFF30B50546006816493E
:100DC00085B0884226D11548816941F4007181615E
:100DD0008069694600F4007004905320009003205D
:100DE00001900F4800F03EFA0F4C0E488021206021
:100DF00000206060C4E90201890021618900C4E922
:100E00000510E061204600F0CDF908B1FFF781FE42
:100E10002C62656205B030BD002401400010024024
:100E20000008014008000240A80100202DE9F04719
:100E3000894604463B4900683B4F0E1D9046884258
:100E400001D0B84207D1306810F4702F03D00125CB
:100E50002846BDE8F08794F8240001280CD0012032
:100E600084F824002046FFF7E9FC05004FF000005D
:100E700004D084F82400EBE70220EAE7A16A40F6F8
:100E80000162914341F48071A1622168B94218D195
:100E9000326812F4702F14D0A16A41F48011A1625B
:100EA0003168490505D5A16A21F4005141F480510A
:100EB000A162A16AC9040AD5E16A21F00601E162D2
:100EC00006E0A26A22F48012A2624968E9E7E062C1
:100ED00084F82400216A15488862216A1448C8628F
:100EE000216A1448086321686FF0020008602068D6
:100EF000816841F480718160216843464A464C31E3
:100F0000206A00F077F920688168C1F3424107291F
:100F1000816803D041F48011816099E741F4A00118
:100F2000FAE700000024014000280140C90700083A
:100F300031080008170800082DE9F05FDFF860822B
:100F40000446D8F80020DFF858B2954D944E944FDF
:100F50000068DFF84C92DFF848A20BF1080B1C3553
:100F6000303644374FF400614FF4004C4FF4002EFC
:100F700009F158090AF16C0A584501D1082316E015
:100F8000A84201D1802312E0B04201D10B460EE00D
:100F9000B84201D163460AE0484501D1734606E0F4
:100FA000504502D14FF4000301E04FF000631A42B4
:100FB00031D00268D24312072DD4026822F0080211
:100FC00002602068584501D1082114E0A84201D1EF
:100FD000802110E0B0420ED0B84201D161460AE053
:100FE000484501D1714606E0504502D14FF4000159
:100FF00001E04FF00061C8F80410606B40F00100A0
:101000006063042084F82100002084F82000216B14
:1010100009B1204688476248D0F800C04FF480618B
:1010200020680A010B044FF4802E584502D14FF07E
:10103000040816E0A84202D14FF0400811E0B04287
:1010400001D188460DE0B84201D1904609E04845FB
:1010500001D1F04605E0504502D14FF4800800E090
:1010600098461CEA080F33D0D0F800C06FEA0C0C89
:101070005FEA4C7C2CD4D0F800C05FEA8C6C05D4BD
:10108000D0F800C02CF0040CC0F800C0206858450F
:1010900001D1042113E0A84201D140210FE0B04268
:1010A0000DD0B84201D1114609E0484501D1714641
:1010B00005E0504502D14FF4800100E01946384860
:1010C0004160112084F82100E16A09B12046884777
:1010D000334AD2F800C05B46206851154FF4005BDC
:1010E0004FF4003E984202D14FF0020817E0A842A8
:1010F00002D14FF0200812E0B04201D188460EE044
:10110000B84201D1D8460AE0484501D1F04606E090
:10111000504502D14FF4001801E04FF000781CEA6E
:10112000080F3BD0D0F800C06FEA0C0C5FEA8C7C53
:1011300034D4D0F800C05FEA8C6C05D4D0F800C07D
:101140002CF0020CC0F800C02068984201D10221A6
:1011500014E0A84201D1202110E0B0420ED0B842E4
:1011600001D159460AE0484501D1714606E0504593
:1011700002D14FF4001101E04FF000715160606B3B
:101180006063012084F82100002084F82000A16A17
:10119000002903D02046BDE8F05F0847BDE8F09F76
:1011A0000000024070B520B190F82110002411B168
:1011B00003E0012070BD80F82040022180F821105A
:1011C00003681A6843F6F0718A43D0E90115294390
:1011D000D0E90356354329434569294385692943A5
:1011E000C5692943114319604463012180F8211026
:1011F000002070BD70B5044690F82000012823D06F
:10120000012084F82000022084F82100206805686D
:1012100025F0010505602046FFF74AFC20680168BB
:1012200041F0020101602068016841F004010160A1
:101230002068016841F0080101602068016841F000
:1012400001010160002070BD022070BD31B500F0C9
:10125000EDF8044600F0EAF80099001B8842F9D343
:1012600038BD00002DE9F84FDFF890A100220AF107
:10127000040B144601274FF00F090BF1040E00BFB9
:101280000B6807FA04F52B40AB4274D1DFF870C14C
:101290004E68A6EB0C0866452BD00DDC032E34D02F
:1012A00005DC36B3012E19D0022E2FD11BE0112EF2
:1012B00016D0122E2AD119E0B8F5881F19D006DCF5
:1012C000B8F5803F15D0B8F5801F1FD111E0B8F5F3
:1012D000001F0ED0B8F5041F18D10AE0CA6815E047
:1012E000CA68121D12E0CA6808320FE0CA680C32E0
:1012F0000CE08A682AB1012A4FF0080203D0456148
:1013000004E0042202E0056100E00022FF2B01D886
:10131000064601E000F104064FEA840501D9A5F173
:101320002005D6F800C009FA05F82CEA080C02FAE4
:1013300005F54CEA050CC6F800C04D68ED0057D520
:10134000304DAE6946F00106AE61AD6924F003068A
:1013500005F0010500952C4D06EB050CDCF8085056
:10136000A6074FEA167809FA08F6B543274EB042A9
:1013700002D1002610E03BE0254EB04201D101260B
:101380000AE0244EB04201D1022605E0224EB042CE
:1013900001D1032600E0042606FA08F62E43CCF815
:1013A00008604D68DAF80060ED03554601D51E432C
:1013B00000E09E432E604D68DBF80060AD035D46A3
:1013C00001D51E4300E09E432E604D68DEF80060AC
:1013D000ED02754601D51E4300E09E432E604D6828
:1013E000AD020E4D2E6801D51E4300E09E432E60D7
:1013F000641C102CFFF444AFBDE8F88F00040140DA
:1014000000001110001002400000014000080140DF
:10141000000C014000100140001401400C04014088
:101420000AB1016170470904FBE700000148006848
:10143000704700000000002002480168491C01605C
:101440007047000000000020074810B5016841F017
:1014500010010160032000F087F8002000F006F87A
:1014600000F016F8002010BD0020024010B5044620
:1014700000F0E6F94FF47A71B0FBF1F000F030FEC5
:1014800000222146501E00F04FF8002010BD000041
:101490001D4808B5816941F001018161806900F052
:1014A00001000090032000F05FF8002211466FF069
:1014B0000B0000F039F8002211466FF00A0000F02E
:1014C00033F8002211466FF0090000F02DF80022D9
:1014D0001146501F00F028F800221146101F00F09E
:1014E00023F800221146901E00F01EF8002211463B
:1014F000501E00F019F80548416821F0E06141F004
:101500000071416008BD0000001002400000014071
:1015100000F01F02012191404009800000F1E0200D
:10152000C0F8001170470000F0B40E4B1B680C4669
:10153000C3F30223C3F10705042D00D90425191DA7
:10154000072901D2002300E0DB1E012606FA05F17F
:10155000491E214099409E40761E16403143F0BC02
:1015600001F09CBD0CED00E0064900F007020868A0
:101570004FF6FF03184040EA0220034A1043086078
:10158000704700000CED00E00000FA052DE9F8437B
:1015900005460078454CC00774D0E06940F08050A3
:1015A000E061E069424E00F080500090306840F405
:1015B00080703060FFF73AFF074604E0FFF736FF20
:1015C000C01B642833D83068C005F7D5206A10F4F2
:1015D000407051D0A98801F4407181424CD0206AFA
:1015E0000126310491FAA1F2B2FA82F29300314A53
:1015F00020F440701344C3F8006491FAA1F1B1FAE9
:1016000081F102EB81010023C1F800342062C007A0
:1016100032D0FFF70BFF074641F288394FF002083E
:1016200008E000BFFFF702FFC11B494502D90320B4
:10163000BDE8F88398FAA8F1B1FA81F141F04001D0
:101640004046B6EB511F01D121680BE090FAA0F1A2
:10165000B1FA81F141F04001B0EB511F01D1216A93
:1016600000E0616A98FAA8F0B0FA80F000F01F027A
:1016700006FA02F00142D5D0206A696820F4407071
:10168000084320622878800705D56068A96820F49F
:101690004040084360602878C00605D56068E96866
:1016A00020F48000084360600020C1E70010024081
:1016B00000700040000042422DE9F047DFF87081E1
:1016C00005460E46D8F8000000F00700B0420CD2E4
:1016D000D8F8001021F007013143C8F80010D8F8FD
:1016E000000000F00700B04277D12878514C800705
:1016F00005D56068A96820F0F0000843606028788C
:10170000C00759D06968012001290DD0022929D0CC
:101710005FF0020393FAA3F2B2FA82F242F02002DF
:10172000520904D0226803E04FF40033F2E7626A02
:1017300093FAA3F3B3FA83F303F01F039840024232
:101740004BD0606820F0030008436060FFF76EFE36
:101750006968074641F2883001290DD00229814687
:1017600017D025E04FF00073D4E700BFFFF75EFE0F
:10177000C11B494501D918E081466068C0F381006A
:101780000128F3D118E000BFFFF750FEC11B494507
:101790000BD86068C0F381000228F5D10CE000BFCF
:1017A000FFF744FEC11B494502D90320BDE8F0877D
:1017B000606810F00C0FF3D1D8F80010404601F02B
:1017C0000701B1420BD9016821F0070131430160E3
:1017D000006800F00700B04201D00120E6E7287859
:1017E000400705D56068E96820F4E0600843606060
:1017F0002878000706D56068296920F4605040EA1F
:10180000C100606000F052F86168F02292FAA2F222
:1018100001F0F001B2FA82F2D140074A515CC840AF
:10182000064908600020FFF721FE0020BEE7000007
:101830000020024000100240C83D000808000020BF
:101840000148006870470000080000200848094966
:10185000006849684FF4E06292FAA2F201F4E06194
:10186000B2FA82F2D140044A515CC840704700008D
:101870000800002000100240D83D0008084809492F
:10188000006849684FF4605292FAA2F201F4605184
:10189000B2FA82F2D140044A515CC840704700005D
:1018A0000800002000100240D83D000810B519A320
:1018B00085B00FCB8DE80F001AA01B4B0068049079
:1018C0005A681A4802F00C0104291DD008291BD1BE
:1018D0004FF4701494FAA4F402F47011B4FA84F47E
:1018E000E140D2031DF8011010D55A684FF40033BF
:1018F00093FAA3F302F40032B3FA83F3DA4004ABB1
:101900009A5CB0FBF2F0484305B010BD084848436C
:10191000FAE7000002030405060708090A0B0C0D8C
:101920000E0F1010010200000010024000127A0099
:1019300000093D002DE9F84F04460078F74DC00737
:101940004FF0010625D068687704C0F381000128B4
:1019500007D06868C0F3810002281BD16868C00303
:1019600018D597FAA7F0B0FA80F040F020004009AF
:1019700001D0286800E0686A97FAA7F1B1FA81F10E
:1019800001F01F0106FA01F108425ED060680028EC
:101990007CD05AE06068B0F5803F0BD010B1B0F554
:1019A000A02F11D0286820F480302860286820F407
:1019B000802002E0286840F480302860606828B306
:1019C000FFF734FD80460BE0286840F48020286053
:1019D000F0E700BFFFF72AFDA0EB0800642871D8EC
:1019E00097FAA7F0B0FA80F040F02000400901D04B
:1019F000286800E0686A97FAA7F1B1FA81F101F06E
:101A00001F0106FA01F10842E4D01EE0FFF70EFDC7
:101A1000804605E0FFF70AFDA0EB08006428DED849
:101A200097FAA7F0B0FA80F040F02000400901D00A
:101A3000286800E0686A97FAA7F1B1FA81F101F02D
:101A40001F0106FA01F10842E4D12078DFF8D082C4
:101A500080074FF000094FF002075BD568684FF030
:101A6000F80B10F00C0F07D06868C0F38100022853
:101A70001CD16868C00319D497FAA7F0B0FA80F0B7
:101A800040F02000400902D0286801E08BE0686A3D
:101A900097FAA7F1B1FA81F101F01F0106FA01F1FD
:101AA00008422CD0206901287DD128E0206990B31C
:101AB00096FAA6F0B0FA80F048F82060FFF7B6FC7E
:101AC000824607E011E100BFFFF7B0FCA0EB0A007F
:101AD000022884D897FAA7F0B0FA80F040F02000EE
:101AE000400901D0286800E0686A97FAA7F1B1FAC6
:101AF00081F101F01F0106FA01F10842E4D02868E3
:101B00009BFAABF26169B2FA82F220F0F8009140E0
:101B10000843286025E0FFE796FAA6F1B1FA81F1C3
:101B200048F82190FFF782FC824605E0FFF77EFC33
:101B3000A0EB0A000228CCD897FAA7F0B0FA80F000
:101B400040F02000400901D0286800E0686A97FA58
:101B5000A7F1B1FA81F101F01F0106FA01F1084283
:101B6000E4D1207800076ED5A069B8B396FAA6F044
:101B7000B0FA80F008EB8000C0F88064FFF756FCF4
:101B8000824605E0FFF752FCA0EB0A000228A0D82D
:101B900097FAA7F0B0FA80F040F06000B6EB501F63
:101BA00002D128680CE062E197FAA7F0B0FA80F061
:101BB00040F06000B7EB501F01D1286A00E0686A6E
:101BC00097FAA7F1B1FA81F101F01F0106FA01F2CB
:101BD0001042D7D00120FFF739FB34E0FFE796FA37
:101BE000A6F1B1FA81F108EB8101C1F88094FFF709
:101BF0001DFC824606E000BFFFF718FCA0EB0A00C0
:101C0000022872D897FAA7F0B0FA80F040F060008E
:101C1000B6EB501F01D128680BE097FAA7F0B0FA95
:101C200080F040F06000B7EB501F01D1286A00E05F
:101C3000686A97FAA7F1B1FA81F101F01F0106FA7B
:101C400001F21042D8D12078400765D5E86940F00C
:101C50008050E861E869DFF8CCB000F08050009077
:101C6000DBF8001041F48071CBF80010FFF7DEFBC9
:101C7000824605E0FFF7DAFBA0EB0A00642834D8BF
:101C8000DBF80000C005F5D5E06801280AD008B1EE
:101C9000052813D0286A20F001002862286A20F065
:101CA000040002E0286A40F001002862E06841F286
:101CB000883B90B3FFF7BAFB82460BE0286A40F0FE
:101CC00004002862EEE700BFFFF7B0FBA0EB0A01BB
:101CD00059450AD897FAA7F0B0FA80F040F04000D2
:101CE000B6EB501F02D128680CE0A3E097FAA7F0EA
:101CF000B0FA80F040F04000B7EB501F01D1286AE5
:101D000000E0686A97FAA7F1B1FA81F101F01F02C9
:101D100006FA02F10842D7D031E005E00010024097
:101D20000000424200700040FFF780FB824605E061
:101D3000FFF77CFBA0EB0A0159457BD897FAA7F087
:101D4000B0FA80F040F04000B6EB501F01D1286897
:101D50000BE097FAA7F0B0FA80F040F04000B7EB44
:101D6000501F01D1286A00E0686A97FAA7F1B1FA1A
:101D700081F101F01F0206FA02F10842D8D1E069B0
:101D800080B36968C1F38101022970D04FF080717E
:101D90004F000228484609D091FAA1F1B1FA81F129
:101DA00048F82100FFF742FB044669E08A4691FAB1
:101DB000A1F1B1FA81F1C14648F82100FFF736FBE5
:101DC000804605E0FFF732FBA0EB0800022854D85C
:101DD00097FAA7F0B0FA80F040F02000400902D056
:101DE000286801E061E0686A97FAA7F1B1FA81F129
:101DF00001F01F0106FA01F10842E3D1206AB0F5B3
:101E0000803F05D16868A16820F40030084368600D
:101E1000D4E908010843696821F474110843686033
:101E20009AFAAAF0B0FA80F049F82060FFF7FEFABB
:101E3000044606E021E000BFFFF7F8FA001B022885
:101E40001BD897FAA7F0B0FA80F040F020004009C4
:101E500001D0286800E0686A97FAA7F1B1FA81F129
:101E600001F01F0106FA01F10842E5D01DE01EE075
:101E7000FFF7DCFA001B022802D90320BDE8F88F27
:101E800097FAA7F0B0FA80F040F02000400901D0A6
:101E9000286800E0686A97FAA7F1B1FA81F101F0C9
:101EA0001F0106FA01F10842E2D10020E6E7012015
:101EB000E4E7000010B5040003D094F8510010B11D
:101EC00004E0012010BD204600F038F8022084F81C
:101ED00051002068016821F040010160D4E901014E
:101EE0000843D4E903121143084361690843218B75
:101EF00001F400710843E1690843216A0843A16ABB
:101F0000084321680860A069042101EA1040616A61
:101F10000843216848602168E06A08612068C16957
:101F200021F40061C161044900200870606501204E
:101F300084F85100002010BD0400002000B50068A6
:101F40000C4985B0884212D10B48816941F4805117
:101F500081618069694600F480500490A02000905F
:101F600002200190032003900448FFF77BF905B09D
:101F700000BD000000300140001002400008014098
:101F80002DE9F843044690F851009846012870D195
:101F900039B332B394F8500001286AD0012684F88E
:101FA0005060122084F85100002565652163A286E7
:101FB000E286E564A564A563A587E587A06A770343
:101FC000B84209D12068016821F4005101602068FD
:101FD000016841F400510160A068B0F5004F03D0E2
:101FE00007E00120BDE8F8832068016841F48041E2
:101FF000016020680168490603D4016841F040018E
:102000000160E0680028606804D0D8B1E08E012843
:1020100018D021E010B1E08E012808D1206B411CBE
:10202000216321680078C860E08E401EE0860004CD
:10203000000C1FD0434600220221204601F034F953
:10204000A8B9EBE7206B21680088C860206B801C72
:102050002063E08E401EE0860004000C0AD0434658
:1020600000220221204601F01FF90028EAD00320B7
:10207000B8E726E0A06AB84204D12068016841F4BC
:1020800080510160434600220221204601F00CF9F4
:1020900030B9434601228021204601F005F920B1E4
:1020A000606D40F010006065E1E7A06818B9206835
:1020B000C1688068009084F8516084F85050002016
:1020C00090E702208EE74FF0E0210428086903D052
:1020D00020F004000861704740F00400FAE7704700
:1020E00010B5401EB0F1807F01D3012010BD4FF02C
:1020F000E02460610F21601700F0D0FF0020A06194
:1021000007202061002010BD10B5FFF7E8FF10BDCB
:1021100030B590F83820012A19D0012200F8382F64
:1021200002234370D1E900342343D1E902452C4313
:1021300023430C6923434C69896923430B4350F8BB
:10214000381C4B64427000210170084630BD0220EB
:1021500030BD30B590F83820012A20D0012280F817
:102160003820022380F8393003685C6824F070045A
:102170005C6003685C680D682C435C6003689C6865
:1021800024F080049C6003689C6849680C439C6050
:1021900080F83920002180F83810084630BD022030
:1021A00030BD10B5040003D094F8390010B107E039
:1021B000012010BD002084F83800204600F00CF803
:1021C000022084F83900211D206801F025F9012042
:1021D00084F83900002010BD08B50C4A01680C488D
:1021E000914207D1816941F400618161806900F405
:1021F000006009E0B1F1804F07D1C16941F00101F0
:10220000C161C06900F00100009008BD002C0140D0
:102210000010024070B5044690F83800012817D02D
:10222000012584F83850022084F83900206882683B
:1022300022F0770222F47F4282600868502837D06B
:102240000DDC202859D005DC88B3102841D151E09D
:10225000022070BD302853D040283AD13FE060289A
:102260002ED070280BD0B0F5805F03D0B0F5005FA2
:102270002FD110E02068816821F0070115E0CB68BC
:10228000D1E90121206801F004F92168886840F053
:10229000770088601DE0CB68D1E90121206801F05A
:1022A000F8F82068816841F48041816011E01EE007
:1022B000CA684968206801F0A1F95021206806E049
:1022C000CA684968206801F0AAF96021206801F015
:1022D000EAF884F83950002084F8380070BDCA68E4
:1022E0004968206801F08AF940212068EFE7002161
:1022F0002068ECE710212068E9E720212068E6E764
:1023000030212068E3E700001FB50068104B022170
:102310000322984208D18015CDE900010392694655
:102320000C48FEF79FFF1FBDB0F1804FFBD14FF46B
:102330000060CDE90001039269460748FEF792FF6D
:102340000648416821F4407141F4007141601FBDAD
:10235000002C014000080140000C01400000014039
:1023600070B5044690F838000D4601280DD00126BE
:1023700084F83860022084F8390042B1042A18D069
:10238000082A2AD00C2A4DD139E0022070BD2068DD
:1023900001F092F82068816941F0080181612068AC
:1023A000816921F004018161206881692A691143F2
:1023B00011E0206801F0A8F82068816941F400610B
:1023C00081612068816921F480618161206881696F
:1023D0002A6941EA0221816124E0206801F0C0F805
:1023E0002068C16941F00801C1612068C16921F01C
:1023F0000401C1612068C1692A69114311E02068A4
:1024000001F0DAF82068C16941F40061C161206817
:10241000C16921F48061C1612068C1692A6941EA0A
:102420000221C16184F83960002084F8380070BD51
:1024300010B5040003D094F8390010B107E0012072
:1024400010BD002084F83800204600F00CF802206F
:1024500084F83900211D206800F0DEFF012084F897
:102460003900002010BD704710B5044600680122F5
:1024700001F004F807492068884203D1416C41F417
:10248000004141642068016841F0010101600020C1
:1024900010BD0000002C014010B504460068002269
:1024A00000F0ECFF104B41F2111120688A109842A5
:1024B00009D1036A0B4206D1036A134203D1436C6C
:1024C00023F4004343642068036A0B4206D1016A87
:1024D000114203D1016821F001010160012084F85B
:1024E0003900002010BD0000002C0140704790F81A
:1024F0003900704738B5044600680168C26811F0B9
:10250000010F02F4807204D01AB1E16B41F00101B5
:10251000E1630168C1F34002416901F0010122B1A8
:1025200019B1E26B42F00402E2630268C2F3800276
:1025300022B119B1E26B42F00202E2630268C2F317
:10254000C00222B119B1E16B41F00801E1630168F9
:10255000C068C1F3401100F0200019B110B120464D
:1025600001F070F820680168C068C1F3C01100F084
:10257000800019B110B1204601F070F92168086897
:10258000CA68C0F3801002F04002012570B16AB140
:10259000CA68204622F04002CA6094F839103229F5
:1025A00011D080F8395000BF00F03EF9E06B0028F0
:1025B00008D0206801684068009084F839502046AF
:1025C000FFF794FF38BD222180F83910ECE770B591
:1025D000040004D094F83900002510B106E0012071
:1025E00070BD84F83850204600F020F8022084F8AE
:1025F00039002068C16821F40051C160204601F013
:1026000075F82068016921F49041016120684169F1
:1026100021F02A0141612068C16841F40051C16084
:10262000E563012084F83900002070BD70B5244EA8
:1026300003680024234902200322234D86B0B342BD
:1026400021D18B6943F480438B618969039201F442
:10265000804104910102CDE9001069462846FEF749
:1026600001FE2815CDE90004694628460294FEF7CC
:10267000F9FD002211462520FEF756FF2520FEF722
:1026800047FF06B070BD114EB342FAD1CB6943F497
:102690000033CB61C969039201F400310491042134
:1026A000CDE9001069462846FEF7DCFD0820CDE99B
:1026B0000004694628460294FEF7D4FDE1E70000D5
:1026C0000038014000100240000801400044004072
:1026D00090F83930012B01D0122B2CD139B332B301
:1026E00090F83830012B26D0012380F838308162F1
:1026F0008285C2850021C16390F83920122A18D042
:102700005FF0220280F8392080F838100168CA682A
:1027100042F48072CA6001684A6942F001024A616B
:102720000068C16841F02001C160002070470120AD
:1027300070473222E6E70220704700000068044933
:10274000884204D1012203490348FFF7C1BF704703
:10275000003801400C000020180100202DE9F0474E
:10276000044690F8390099460D46012801D02228E8
:1027700058D12DB322B394F83800012852D0012645
:1027800084F838600027E76394F8390022281AD0CB
:102790005FF0120084F83900A284E2844FF480587C
:1027A000E08C4B46401EE084A0684FF0000240459C
:1027B0004FF08001204613D101F083F808BB04E0FC
:1027C0000120BDE8F0873220E4E728882168C0F3C3
:1027D00008004860206908B16D1C08E0AD1C06E0E7
:1027E00001F06FF868B9216815F8010B4860E08CBA
:1027F0000028D5D14B4600224021204601F061F847
:1028000008B10320DDE794F83900322806D084F8B7
:10281000396000BF84F838700020D2E7222084F8A5
:102820003900F7E70220CCE77047FEE72DE9F041D9
:10283000060AC7B27F2300211A460846FEF736F87B
:1028400000250024304600F05BF9384600F058F9C6
:10285000641CA4B2802CF5D36D1CADB2802DF0D3D6
:10286000BDE8F081044B4FF4805108B1012200E033
:1028700000221846FEF7D4BD000C014010B53549C2
:1028800004464FF6FF700880334940F2CF1033A260
:10289000088046210A2000F006F931A25A210A20B8
:1028A00000F001F92FA26E210A2000F0FCF8B4F923
:1028B00004004FF00003002808DA2D2246212820CA
:1028C00000F060F8A0884042A08004E02022462169
:1028D000282000F057F8B4F906004FF00003002854
:1028E00008DA2D225A21282000F04CF8E0884042D6
:1028F000E08004E020225A21282000F043F8B4F9B7
:1029000008004FF00003002808DA2D226E2128204D
:1029100000F038F820894042208104E020226E2116
:10292000282000F02FF8B4F9042003234621322098
:1029300000F088F8B4F9062003235A21322000F071
:1029400081F8B4F9082003236E21BDE8104032203D
:1029500000F078B80E00002010000020583A000067
:10296000593A00005A3A000010B50B460246FDF7EE
:102970009DFF03484088BDE8104000F0AFB800005C
:102980000E0000202DE9F05F81462C481C46884649
:10299000B0F802A0B9F1700F4ED8B8F1700F4BD853
:1029A00008F10F00203A83B2D6B209F1070082B2D3
:1029B00041464846FDF77AFF2148002C4FF00004BD
:1029C0001ED1DFF87880814604EB0611002519F846
:1029D0000170F80702D0A8F802A003E0B8F80010D0
:1029E000A8F80210B8F8020000F078F86D1C7F0813
:1029F000EDB2082DEDD3641CE4B2102CE4D318E042
:102A00000F4804EB06110025475C08EB040BF807A0
:102A100006D009EB05001FFA8BF180B2FFF7A4FF87
:102A20006D1C7F08EDB2082DF1D3641CE4B2102CAC
:102A3000E6D30249A1F802A0BDE8F09F0E000020F5
:102A4000E03E00082DE9F04700261D4689468046F5
:102A500097B2344623E0281B401EC1B20A2001F081
:102A6000ABF9B7FBF0F00A21B0FBF1F201FB120069
:102A700026B9691E8C4201DA38B101263030C2B263
:102A800008EBC40080B2002304E008EBC40000237C
:102A900080B220224946FFF775FF641CE4B2AC42C5
:102AA000D9D3BDE8F08770B516460D46044610E050
:102AB000702C02D900241035ADB2702D01D900243C
:102AC0002546002329462046FFF75CFF0834A4B2C0
:102AD000761C3278002AEBD170BD000010B5044698
:102AE000012211460548FEF79BFC200A00F024F85D
:102AF000E0B2BDE8104000F01FB80000000C01403B
:102B000010B50446012211460348FEF789FC204611
:102B1000BDE8104000F010B8000C014010B50446AC
:102B2000002201210348FEF77BFC2046BDE810404F
:102B300000F002B8000C014008B54FF47A738DF82C
:102B40000000012269460248FFF71AFA08BD00009A
:102B50004800002000B587B0B0B16021009100218D
:102B600006910291049103910A46059101906946EC
:102B70000A48FFF7F5FB00B1FEE700210748FFF721
:102B800073FC002807D0FEE700210448FFF784FC0F
:102B9000002800D0FEE707B000BD0000A000002024
:102BA00070B59F4D4FF48064002221462846FEF701
:102BB00037FC002202212846FEF732FC6420FEF793
:102BC00045FB012202212846FEF72AFC012221466C
:102BD0002846FEF725FC6420FEF738FB002221463C
:102BE0002846FEF71DFC1120FFF798FF7820FEF71E
:102BF0002DFBB120FFF792FF0520FFF781FF112089
:102C0000FFF78CFF7820FEF721FBB120FFF786FF4E
:102C10000120FFF775FF2C20FFF772FF2D20FFF733
:102C20006FFFB220FFF77AFF0120FFF769FF2C202A
:102C3000FFF766FF2D20FFF763FFB320FFF76EFF5E
:102C40000120FFF75DFF2C20FFF75AFF2D20FFF733
:102C500057FF0120FFF754FF2C20FFF751FF2D20D5
:102C6000FFF74EFFB420FFF759FF0720FFF748FF9B
:102C7000C020FFF753FFA220FFF742FF0220FFF71B
:102C80003FFF8420FFF73CFFC120FFF747FFC5202F
:102C9000FFF736FFC220FFF741FF0A20FFF730FFA2
:102CA0000020FFF72DFFC320FFF738FF8A20FFF732
:102CB00027FF2A20FFF724FFC420FFF72FFF8A20D9
:102CC000FFF71EFFEE20FFF71BFFC520FFF726FFD3
:102CD0000E20FFF715FF3620FFF720FF6820FFF7D3
:102CE0000FFFE020FFF71AFF0F20FFF709FF1A2060
:102CF000FFF706FF0F20FFF703FF1820FFF700FF85
:102D00002F20FFF7FDFE2820FFF7FAFE2020FFF717
:102D1000F7FE2220FFF7F4FE1F20FFF7F1FE1B2035
:102D2000FFF7EEFE2320FFF7EBFE3720FFF7E8FE6C
:102D30000020FFF7E5FE0720FFF7E2FE0220FFF785
:102D4000DFFE1020FFF7DCFEE120FFF7E7FE0F209B
:102D5000FFF7D6FE1B20FFF7D3FE0F20FFF7D0FEB4
:102D60001720FFF7CDFE3320FFF7CAFE2C20FFF718
:102D7000C7FE2920FFF7C4FE2E20FFF7C1FE30203A
:102D8000FFF7BEFE3020FFF7BBFE3920FFF7B8FE8D
:102D90003F20FFF7B5FE0020FFF7B2FE0720FFF748
:102DA000AFFE0320FFF7ACFE1020FFF7A9FE2A209C
:102DB000FFF7B4FE0020FFF7A3FE0020FFF7A0FE00
:102DC0000020FFF79DFE7F20FFF79AFE2B20FFF7E4
:102DD000A5FE0020FFF794FE0020FFF791FE0020E3
:102DE000FFF78EFE7F20FFF78BFEF020FFF796FEA9
:102DF0000120FFF785FEF620FFF790FE0020FFF789
:102E00007FFE3A20FFF78AFE0520FFF779FE292092
:102E1000FFF784FEBDE870402C20FFF77FBE000066
:102E2000000C0140FEB51D481B49002401608915B6
:102E3000C0E902144461042505614FF46021446037
:102E4000C161FDF71FFF00B1FEE70126CDE9004695
:102E5000694612480294FDF75DFE00B1FEE70220CC
:102E6000CDE9006069460D48FDF754FE00B1FEE76C
:102E70000320CDE9005069460848FDF74BFE00B13C
:102E8000FEE70620CDE9000569460448FDF742FE4D
:102E9000002800D0FEE7FEBD0024014018000020FD
:102EA00030B5214885B0816941F0100181618169A7
:102EB00001F010010491816941F020018161816973
:102EC00001F020010491816941F00401816181696F
:102ED00001F004010491816941F008018161806978
:102EE000124D00F008000490002201212846FEF750
:102EF00097FA012241F202412846FEF791FA41F287
:102F000003000124CDE9000402200390694628460D
:102F1000FEF7A8F9A002CDE900046946284603940B
:102F2000FEF7A0F905B030BD00100240000C0140D2
:102F30000F4810B50D4901604FF4827141604FF4A4
:102F4000004181600021C1604FF400720161C0E95D
:102F500005122022C0E90721416281620A21C16273
:102F6000FEF7A8FF002800D0FEE710BD00300140AA
:102F70004800002010B5284894B026490160482137
:102F80000024C0E901144FF47A71C1604FF400715C
:102F9000C0E90414FFF705F900B1FEE74FF48050D3
:102FA0000E900EA91C48FFF735F900B1FEE71A484C
:102FB000FFF73EFA00B1FEE7129412A916481394E7
:102FC000FFF7C7F800B1FEE700944FF40050CDE9D9
:102FD000044001940294039469460F480694FFF755
:102FE00097F800B1FEE7602007904FF49670CDE9A6
:102FF00008040A940B940C94002207A906480D9427
:10300000FFF7AEF900B1FEE70348FFF77DF914B012
:1030100010BD0000002C0140A000002010B51D488C
:103020008EB04FF08041016048210024C0E90114B6
:103030004FF47A71C0E90314FFF7B3F800B1FEE76B
:103040004FF48050079007A91248FFF7E3F800B14A
:10305000FEE71048FFF7ECF900B1FEE70B940BA96F
:103060000C480C94FFF775F800B1FEE76020009063
:103070004FF4FA70CDE901040C2269460548049426
:10308000FFF76EF900B1FEE70248FFF73DF90EB019
:1030900010BD0000DC000020FEE770470907090EA4
:1030A000002806DA00F00F0000F1E02080F8141D7F
:1030B000704700F1E02080F800147047704700006E
:1030C0002DE9F05F0026DFF898A104463746B046A8
:1030D000B146354662490422A1F5C070FDF7A6FE4F
:1030E000DAF80010DAF808200E44DAF804106D1C43
:1030F0000F44DAF80C10ADB2904489440A2DE9D39C
:103100000A20B6FBF0F1B8FBF0F6B7FBF0F5B9FB1F
:10311000F0F80846FDF7F9F9DFF848A14FF06639F5
:103120004A465346FDF7F9F86FF00B0B5A46FDF788
:10313000D5F9FDF729FA07462846FDF7E6F94A468C
:103140005346FDF7EAF85A46FDF7C8F9FDF71CFAB1
:1031500005463046FDF7D9F94A465346FDF7DDF8F6
:103160005A46FDF7BBF9FDF70FFA06464046FDF754
:10317000CCF94A465346FDF7D0F85A46FDF7AEF96A
:103180000122FDF7ABF9FDF7FFF983463648DFF87A
:10319000DC80DFF8DC90DFF8DCA0874238460BDB10
:1031A000FDF7DFF942464B46FDF7B1F80022324BFE
:1031B000FDF7B3F8314A0BE0FDF7D3F942464B4631
:1031C000FDF7A5F800222C4BFDF7A7F82B4A921E1D
:1031D0005346FDF714F9FDF7A5F9A0802848294FBB
:1031E000DFF8A480854228460CDDFDF7BAF93A469F
:1031F0004346FDF78CF800221F4BFDF78EF8234A5B
:10320000234B0BE0FDF7ADF93A464346FDF77FF857
:103210000022194BFDF781F81E4A1F4BFDF7EFF80E
:10322000FDF780F9E080B6F5000F0CDB1B49304656
:10323000FCF79AFFFDF795F9194A1A4BFDF7DFF8ED
:10324000FDF770F92081A0885030A080E0880A3016
:10325000E0802089503820815846BDE8F09F00006A
:103260009801002066660A40F628DC3F85EB51B8DD
:103270001E85FB3F285CEF3F00C072405E8FC2F5A9
:10328000D7A3D03F14AE47E17A14FA3FA4703D0AA9
:10329000D7A3F03F703D0AD7A370F13F0000FA4377
:1032A0009A999999999905402DE9F0471D469046BC
:1032B0000E460446FEF7BAF807465FEA08004FF0EC
:1032C00000084FF4005A4FF0010926D034E0681C82
:1032D00023D025B1FEF7AAF8C01BA8421DD920684B
:1032E000416821F0E00141602068016821F040015F
:1032F0000160A06A504509D12068016821F400519D
:1033000001602068016841F40051016084F8519027
:1033100084F850800320BDE8F0872068806836EA92
:103320000000D4D10DE0681C06D0002DD7D0FEF7E8
:103330007DF8C01BA842D2D82068806836EA000019
:10334000F1D00020E7E7704710B5FEF775F8BDE84B
:103350001040FEF7D9BE30B593B0012000900004B4
:103360000025CDE901050224CDE907404FF4E01026
:1033700009906846FEF7DEFA00B1FEE70AA90F20C1
:1033800081E831004FF48060CDE90D0502210AA8E3
:10339000FEF792F900B1FEE74FF4004011900F9450
:1033A0000FA8FEF7F3F800B1FEE7FEF749FA4FF475
:1033B0007A71B0FBF1F0FEF793FE0420FEF783FE76
:1033C00000221146501EFEF7AFF813B030BD0000CA
:1033D0000D48016841F00101016041680B4A11404C
:1033E000416001680A4A11400160016821F48021AE
:1033F0000160416821F4FE0141604FF41F018160CA
:103400000449C00308607047001002400000FFF844
:10341000FFFFF6FE08ED00E0F0B50268144B154C16
:10342000154D4FF08047984205D0B84203D0A042D6
:1034300001D0A84203D122F070064A683243984274
:1034400005D0B84203D0A04201D0A84203D122F453
:103450004074CA68224302608A68C2620A68826253
:10346000984201D10969016301214161F0BD000069
:10347000002C0140000400400008004010B501236A
:10348000046A8B409C430462036A8A4013430362CC
:1034900010BD10B5846842EA032224F47F440A4335
:1034A0002243826010BD826822F070020A4342F01B
:1034B000070181607047000030B5026A22F0010206
:1034C0000262026A4368846924F073050C682C4325
:1034D00022F002058A682A430A4DA8420BD122F045
:1034E0000805CA6823F440732A434D6922F0040298
:1034F0001D438B692B4343608461496841630262C9
:1035000030BD0000002C014030B5026A22F01002EC
:103510000262026A436884690D6824F4E64444EA5E
:1035200005248D6822F0200242EA05120B4DA842C4
:103530000ED1CD6822F0800242EA05124D6923F4D3
:10354000406343EA85038D6922F0400243EA850324
:103550004360846149688163026230BD002C014090
:1035600030B5026A22F480720262036A4268C4695A
:1035700023F4007324F073050C682C438D6843EA30
:1035800005230C4DA8420ED1CD6823F4006343EA15
:1035900005234D6922F4405242EA05128D6923F455
:1035A000806342EA05124260C4614968C1630362F4
:1035B00030BD0000002C014030B5026A22F4805278
:1035C0000262046A4268C3690D6823F4E64343EA71
:1035D00005238D6824F4005444EA0534064DA842BE
:1035E00004D14D6922F4804242EA85124260C361EF
:1035F00049680164046230BD002C014010B5036AC3
:10360000046A24F001040462846924F0F00444EAAA
:10361000021423F00A020A438461026210BD10B54D
:10362000036A23F0100303628369046A23F470437E
:1036300043EA023224F0A00343EA011182610162ED
:1036400010BD000010B590F83910222903D032299E
:1036500001D0022010BD8168B1F5805F11D00169F1
:10366000002901681FD0496801F07F03816A4A1C64
:1036700082620B70C18D491E0904090CC18518D0E6
:1036800030E00269816A002A0268526805D0D2B22D
:103690000A80816A491C8162ECE7C2F308020A8051
:1036A000816A891CF7E74A68816A4B1C83620A7049
:1036B000E0E70168CA6822F02002CA6090F8391079
:1036C000322911D00168CA6822F48072CA60016888
:1036D0004A6922F001024A615FF0010180F8391065
:1036E000FFF72CF8002010BD1221F7E72DE9F0417B
:1036F000044600680169E26821F440511143016108
:103700002169A0680843616908432168CA6841F2D9
:103710000C639A430243CA6020684169A26921F49C
:103720004071114341614C4920686425322688422A
:103730003CD1FEF7A3F800EBC00101EB001061687B
:103740008900B0FBF1F7FEF799F800EBC00101EB3F
:1037500000106168B0468900B0FBF1F0B0FBF5F0F5
:103760006FF01801484307EB800106EB0110B0FB36
:10377000F5F000F0F006FEF781F800EBC00101EB78
:10378000001061688900B0FBF1F0B0FBF5F006EBCA
:103790000016FEF773F800EBC00101EB0010616842
:1037A0008900B0FBF1F7FEF769F83BE0FEF74EF851
:1037B00000EBC00101EB001061688900B0FBF1F77C
:1037C000FEF744F800EBC00101EB00106168B04661
:1037D0008900B0FBF1F0B0FBF5F06FF01801484341
:1037E00007EB800106EB0110B0FBF5F000F0F006EE
:1037F000FEF72CF800EBC00101EB001061688900B6
:10380000B0FBF1F0B0FBF5F006EB0016FEF71EF88A
:1038100000EBC00101EB001061688900B0FBF1F71B
:10382000FEF714F800EBC00101EB0010616889009D
:10383000B0FBF1F0B0FBF5F06FF01801484307EB77
:10384000800108EB0110B0FBF5F0216800F00F00DB
:1038500030448860BDE8F0810038014090F83910AC
:10386000122903D0322901D0022070478168B1F5B6
:10387000805F016A0BD04A1C0262026809785160BD
:10388000C18C491E0904090CC1840ED017E00988B7
:103890000268C1F30801516001690029016A02D080
:1038A000491C0162ECE7891CFBE70168CA6822F049
:1038B0008002CA600068C16841F04001C160002018
:1038C00070472DE9F0471D4690460E460446FDF729
:1038D000ADFD07465FEA08004FF000094FF0010810
:1038E00008D030E0681C05D095B1FDF79FFDC01BE6
:1038F000A8420DD82068006836EA0000F2D127E01F
:10390000681C20D025B1FDF791FDC01BA8421AD933
:103910002068C16821F08001C1602068C16821F081
:103920002001C1602068C16821F48071C1602068F5
:10393000416921F00101416184F8398084F83890AF
:103940000320BDE8F0872068006836EA0000D7D081
:103950000020F6E70148FEF7CDBD00001801002069
:10396000FEE700000FB4054B10B503A9044A029806
:1039700000F018F810BC5DF814FB0000193B0008BB
:103980001400002002E008C8121F08C1002AFAD162
:1039900070477047002001E001C1121F002AFBD1CF
:1039A000704700002DE9FF4F89B09B460446002573
:1039B00006E025280BD05A460B999047641C6D1CD5
:1039C00020780028F5D10DB02846BDE8F08F0027FB
:1039D000B8460122474900E0074314F8013F203B65
:1039E00002FA03F00842F7D120782E2819D114F8F2
:1039F000010F47F004072A280ED06FF02F0220781D
:103A0000A0F1300109290CD808EB880102EB410133
:103A100000EB0108641CF2E70A98641C50F8048B60
:103A20000A9020780028CED0642808D0692806D0D3
:103A300075281ED05A460B9990476D1C58E00A997C
:103A40004FF00A0901C90A91002802DA40422D21EB
:103A500002E0390504D52B218DF82010012103E067
:103A6000F90704D02021F7E78A4608AE0DE00021CF
:103A7000FAE70A994FF00A0901C90A91F7E749469E
:103A8000FCF79EFD303106F8011D0028F7D1ADEBA3
:103A9000060000F12009780701D44FF00108C8455D
:103AA00002DDA8EB090000E000208046002706E0C8
:103AB00008A85A46C05D0B9990476D1C7F1C57455E
:103AC000F6DB04E030205A460B9990476D1CB8F1A4
:103AD0000001A8F10108F5DC05E016F8010B5A46D3
:103AE0000B9990476D1CB9F10001A9F10109F4DCB3
:103AF000641C65E709280100034610B50020024652
:103B000006E000BF13F8014B521C2044C0B2D2B2F1
:103B10008A42F7D310BD000010B50446C1B2024876
:103B2000FCF709FF204610BD1801002086B00025D3
:103B30002C46FDF789FCFFF70EFCFFF7B1F97D4835
:103B4000416941F0010141614069002200F001003A
:103B5000049011460B20FDF7E7FC0B20FDF7D8FC85
:103B6000FFF760F9754874494FF4E139C0E900196D
:103B70004FF00008C0F808804FF00C0AC0F80C8025
:103B8000C0E9048AC0F81880C0F81C80FEF71FFD49
:103B900000B1FEE769486A494030C0E90019C0F841
:103BA0000880C0F80C80C0E9048AC0F81880C0F80A
:103BB0001C80FEF70CFD00B1FEE7FFF7B9F9FFF737
:103BC000D9F9FFF72BFA01225E495C48FEF780FD28
:103BD000FEF7E6FF4FF6FF7A5046FEF727FEDFF8C6
:103BE00068B1C1465AA2ABF80080DFF860810021BD
:103BF0000820A8F800A0FEF756FF58A210212820A0
:103C0000FEF751FFABF800A0A8F8009056A22021C3
:103C10000020FEF748FF6846FCF7CAFEDFF858B1FF
:103C2000DFF820A14EF6602840F6C4196846FFF779
:103C300047FA0490BDF804004042ADF80400BDF816
:103C400006004042ADF806006846FCF741FFBDF9AA
:103C50000830BDF90620BDF9041048A0FFF782FE28
:103C60006846FEF70BFEFDF7E1FB011B414502D95B
:103C70000020FEF7F7FDBDF90410BDF90600494329
:103C800000FB001231B24943301400FB0010101A3F
:103C9000502805DDFDF7CAFB04460120FEF7E2FDD2
:103CA000019EFDF7C3FB411B494538D9FDF7BEFB1B
:103CB00004990546594525DAA7B11420FEF74AFFB5
:103CC00034490498884203DC4FF4C870FCF74AFE7C
:103CD0001E494FF4784030A2088032210020FEF7C0
:103CE000E2FE1BE00020FEF735FF0020FCF73AFE65
:103CF00016494FF478402CA2088032210020FEF7AC
:103D0000D2FE14E00A20FEF725FF0020FCF72AFE71
:103D100025A232210020FEF7C6FE47B100279AF8FF
:103D2000000000EB80004000FDF790FA7EE70127DD
:103D3000F5E70000001002400038014018010020A3
:103D4000004400400C0000200E0000201000002065
:103D5000434F4F5244494E415445000053494D553D
:103D60004C4154494F4E00003D3D3D3D3D3D3D3DA4
:103D70003D3D3D3D3D3D3D009A99594053656E7333
:103D80006F72446174613D2825642C25642C256480
:103D9000290A0000E17A54404C6F77204261747424
:103DA0006572792121000000202020202020202081
:103DB00020202020200000000246012000E0504387
:103DC000491EC9B2FBD2704700000000000000008D
:103DD00001020304060708090000000001020304B1
:103DE00000000000000000000000800000FEFF0155
:103DF00000FEFF010006C0000006C0000006C00073
:103E000000FEFF000006C0000006C0000006C00063
:103E100000FEFF000006C0000006C0000002000017
:103E200030300C1CF07FFC3F30300C1C30300C1C50
:103E300030300C1C30300C1CF03FFC1F30300C1CA0
:103E400030300C1C30300C1C30300C1CF03FFC1F90
:103E5000F03FFC1F30300C1C3010040C0000000040
:103E60000000000000000000C0000808C0F1FF1FB3
:103E7000C0F0FF1FC0484C1CC4DCCC1DCCDC8D1D29
:103E8000DC8E8D1DD8060E1FF8C3EF1DF8F1EC1C5B
:103E9000D0601D1CC01C770CFE9FE7003483E30C30
:103EA00030C3FF1F30C3610030E3610030E36106BF
:103EB00030F3FF0F30DB610030FB610438DB610E53
:103EC00018CFFF0F18C7610098C761000CC3613895
:103ED00004C2FF3F06C0010002C001000000000054
:103EE00000000000000000000000000000000000D2
:103EF000000000080808080808080000181800005A
:103F000000486C24120000000000000000000000C7
:103F10000000002424247F1212127F1212120000CB
:103F20000000081C2A2A0A0C1828282A2A1C08081B
:103F300000000022251515152A585454542200005B
:103F40000000000C1212120A76252911916E000051
:103F5000000606040300000000000000000000004E
:103F60000040201010080808080808101020400021
:103F700000020408081010101010100808040200B5
:103F80000000000008086B1C1C6B08080000000003
:103F900000000000080808087F0808080800000062
:103FA00000000000000000000000000006060403FE
:103FB0000000000000000000FE0000000000000003
:103FC00000000000000000000000000006060000E5
:103FD0000000804040202010100808040402020065
:103FE000000000182442424242424242241800008B
:103FF000000000080E08080808080808083E00002D
:104000000000003C4242422020100804427E000092
:104010000000003C4242201820404042221C000088
:10402000000000203028242422227E202078000056
:104030000000007E0202021A26404042221C0000BC
:10404000000000382402021A2642424224180000CE
:104050000000007E2222101008080808080800004E
:104060000000003C4242422418244242423C0000EC
:10407000000000182442424264584040241C0000C2
:1040800000000000000018180000000018180000D0
:104090000000000000000008000000000008080404
:1040A0000000004020100804020408102040000016
:1040B0000000000000007F0000007F000000000002
:1040C0000000000204081020402010080402000034
:1040D0000000003C4242464020101000181800002A
:1040E0000000001C225A555555552D42221C000037
:1040F0000000000808181414243C224242E7000083
:104100000000001F2222221E22424242221F0000E3
:104110000000007C4242010101010142221C00001A
:104120000000001F2242424242424242221F00003F
:104130000000003F4212121E12120242423F0000D3
:104140000000003F4212121E12120202020700007B
:104150000000003C2222010101712122221C0000EA
:10416000000000E7424242427E42424242E70000F3
:104170000000003E0808080808080808083E00007B
:104180000000007C10101010101010101010110FF3
:104190000000007722120A0E0A1212222277000073
:1041A000000000070202020202020202427F000037
:1041B00000000077363636362A2A2A2A2A6B000073
:1041C000000000E346464A4A5252526262470000EB
:1041D0000000001C2241414141414141221C00009C
:1041E0000000003F424242423E020202020700003B
:1041F0000000001C2241414141414D53321C6000EE
:104200000000003F4242423E1212222242C70000FA
:104210000000007C4242020418204042423E00005E
:104220000000007F4908080808080808081C00006A
:10423000000000E74242424242424242423C000009
:10424000000000E742422224241414180808000049
:104250000000006B49494949555536222222000089
:10426000000000E7422424181818242442E7000024
:10427000000000772222141408080808081C000017
:104280000000007E2120101008040442423F00007C
:1042900000780808080808080808080808087800CE
:1042A00000000202040408080810102020204040EA
:1042B000001E1010101010101010101010101E0002
:1042C0000038440000000000000000000000000072
:1042D000000000000000000000000000000000FFDF
:1042E00000060800000000000000000000000000C0
:1042F000000000000000003C4278444242FC000004
:10430000000000030202021A26424242261A00005E
:10431000000000000000003844020202443800009F
:1043200000000060404040784442424264D80000AF
:10433000000000000000003C427E0202423C0000FF
:10434000000000F08808087E08080808083E000001
:10435000000000000000007C22221C023C42423C83
:10436000000000030202023A4642424242E70000D5
:104370000000000C0C00000E08080808083E0000B1
:104380000000003030000038202020202020221E95
:104390000000000302020272120A161222770000C5
:1043A0000000000E0808080808080808083E000079
:1043B000000000000000007F9292929292B70000ED
:1043C000000000000000003B4642424242E700007D
:1043D000000000000000003C42424242423C00001B
:1043E000000000000000001B26424242221E02077D
:1043F000000000000000007844424242447840E05F
:1044000000000000000000774C040404041F0000BA
:10441000000000000000007C42023C40423E0000E0
:10442000000000000008083E0808080808300000E6
:1044300000000000000000634242424262DC0000D3
:1044400000000000000000E74224241408080000D7
:1044500000000000000000EB4949555522220000F1
:10446000000000000000007624181818246E0000D8
:1044700000000000000000E7422424141808080788
:10448000000000000000007E22100808447E0000AA
:1044900000C0202020202010202020202020C0002C
:1044A000101010101010101010101010101010100C
:1044B0000006080808080810080808080808060088
:1044C0000C32C200000000000000000000000000EC
:1044D000F0440008000000201800000084390008A3
:1044E0000845000818000020C8050000943900089D
:1044F000000000000000000000A24A040A000000C2
:084500000000000000000000B3
:04000005080000ED02
:00000001FF
